:020000040800F2
:100000000000032095050008091D00080B1D0008CD
:100010000D1D00080F1D0008111D00080000000044
:10002000000000000000000000000000B15A0008BD
:10003000131D000800000000415B0008CF530008BA
:10004000E5050008E5050008E5050008E5050008E8
:10005000E5050008E5050008E5050008E5050008D8
:10006000E5050008E5050008E5050008E5050008C8
:10007000E5050008E5050008E5050008E5050008B8
:10008000E5050008E5050008E5050008E5050008A8
:10009000E5050008E5050008E5050008E505000898
:1000A000E5050008E5050008E5050008E505000888
:1000B000E5050008E5050008E5050008E505000878
:1000C000E5050008E5050008E5050008E505000868
:1000D000E5050008E5050008E5050008E505000858
:1000E000E5050008E5050008E5050008E505000848
:1000F000E5050008E5050008E5050008E505000838
:10010000E5050008E5050008E5050008E505000827
:10011000E5050008E5050008151D0008E5050008CF
:10012000E5050008E5050008E5050008E505000807
:10013000E5050008E5050008E5050008E5050008F7
:10014000E5050008E5050008E5050008E5050008E7
:10015000E5050008E5050008E5050008E5050008D7
:10016000E5050008E5050008E5050008E5050008C7
:10017000E5050008E5050008E505000800000000A9
:10018000E5050008E5050008E5050008E5050008A7
:10019000E5050008E5050008E5050008E505000897
:0C01A000211D0008E50500082D1D0008C9
:1001B00010B5054C237833B9044B13B10448AFF3A1
:1001C00000800123237010BD6401002000000000A6
:1001D0002CA9010808B5034B1BB103490348AFF331
:1001E000008008BD00000000680100202CA9010863
:1001F00001F0FF01102A2BDB10F0070F08D010F8D8
:10020000013B013A8B422DD010F0070F42B3F6D1DB
:10021000F0B441EA012141EA014122F007047FF0F4
:1002200000070023F0E80256083C85EA010586EA4B
:10023000010685FA47F5A3FA87F586FA47F6A5FA87
:1002400087F68EB9EED1F0BC01F0FF0102F0070293
:1002500032B110F8013B013A83EA010313B1F8D13E
:100260000020704701387047002D06BF354603381F
:10027000073815F0010F07D1013015F4807F02BF58
:10028000013015F4C03F0130F0BC0138704700BFA9
:1002900053B94AB9002908BF00281CBF4FF0FF31ED
:1002A0004FF0FF3000F074B9ADF1080C6DE904CEE9
:1002B00000F006F8DDF804E0DDE9022304B0704741
:1002C0002DE9F047089D04468E46002B4DD18A4209
:1002D000944669D9B2FA82F252B101FA02F3C2F13C
:1002E000200120FA01F10CFA02FC41EA030E9440CD
:1002F0004FEA1C48210CBEFBF8F61FFA8CF708FBEE
:1003000016E341EA034306FB07F199420AD91CEBC5
:10031000030306F1FF3080F01F81994240F21C81F7
:10032000023E63445B1AA4B2B3FBF8F008FB10333F
:1003300044EA034400FB07F7A7420AD91CEB040474
:1003400000F1FF3380F00A81A74240F20781644444
:10035000023840EA0640E41B00261DB1D4400023C9
:10036000C5E900433146BDE8F0878B4209D9002D2D
:1003700000F0EF800026C5E9000130463146BDE8B7
:10038000F087B3FA83F6002E4AD18B4202D3824221
:1003900000F2F980841A61EB030301209E46002DD0
:1003A000E0D0C5E9004EDDE702B9FFDEB2FA82F225
:1003B000002A40F09280A1EB0C014FEA1C471FFA83
:1003C0008CFE0126200CB1FBF7F307FB131140EA6A
:1003D00001410EFB03F0884208D91CEB010103F137
:1003E000FF3802D2884200F2CB804346091AA4B2F9
:1003F000B1FBF7F007FB101144EA01440EFB00FECD
:10040000A64508D91CEB040400F1FF3102D2A64531
:1004100000F2BB800846A4EB0E0440EA03409CE7D0
:10042000C6F12007B34022FA07FC4CEA030C20FA7D
:1004300007F401FA06F31C43F9404FEA1C4900FA9D
:1004400006F3B1FBF9F8200C1FFA8CFE09FB18111A
:1004500040EA014108FB0EF0884202FA06F20BD98D
:100460001CEB010108F1FF3A80F08880884240F2DD
:100470008580A8F102086144091AA4B2B1FBF9F021
:1004800009FB101144EA014100FB0EFE8E4508D91C
:100490001CEB010100F1FF346CD28E456AD90238A1
:1004A000614440EA0840A0FB0294A1EB0E01A14286
:1004B000C846A64656D353D05DB1B3EB080261EBF4
:1004C0000E0101FA07F722FA06F3F1401F43C5E9CE
:1004D000007100263146BDE8F087C2F12003D84004
:1004E0000CFA02FC21FA03F3914001434FEA1C4746
:1004F0001FFA8CFEB3FBF7F007FB10360B0C43EA38
:10050000064300FB0EF69E4204FA02F408D91CEBE7
:10051000030300F1FF382FD29E422DD902386344E5
:100520009B1B89B2B3FBF7F607FB163341EA034185
:1005300006FB0EF38B4208D91CEB010106F1FF38D4
:1005400016D28B4214D9023E6144C91A46EA0046CB
:1005500038E72E46284605E70646E3E61846F8E65D
:100560004B45A9D2B9EB020864EB0C0E0138A3E7A6
:100570004646EAE7204694E74046D1E7D0467BE787
:10058000023B614432E7304609E76444023842E7FF
:10059000704700BFDFF834D0002103E00C4B5B58FC
:1005A000435004310B480C4B42189A42F6D30B4A85
:1005B00002E0002342F8043B094B9A42F9D302F0CF
:1005C000E5FC19F04DF900F087FE704700000320AC
:1005D000344C080800000020640100206401002061
:1005E00050270120FEE700F089BC00F0F7BC7047FF
:1005F00010B50421044619F0BBF8204610BD0000D8
:1006000038B50C4B0C4C18800C4B82201980636859
:10061000984740F6110398420AD1094D23682C608F
:10062000822098472B688220DB689847002038BDDD
:100630000120FCE7800100204C0000208201002006
:10064000840100204FF4A071F020FFF7D9BF000013
:10065000F7B5344D2B6804461B698220984780B259
:10066000208000284CD02B680DF106025B6901A99F
:1006700082209847BDF8063040F67462934241D913
:10068000ADF80620BDF80620C2F56762043292B2CA
:100690000A2A3DD90B23B2FBF3F2234B1B889A4263
:1006A00001D9013B9AB2BDF8043040F6B8318B4213
:1006B00030D8C3F571630E339BB20F21B3FBF1F356
:1006C0001A4909888B4201D94B1E9BB2184E194D0D
:1006D00030682F68834281B28CBF591AC91AB8B2E8
:1006E000BA428CBF101A801A89B280B2014405291F
:1006F000C8BF33603368C8BF2A6063802B68A3809B
:1007000003B0F0BDB32B9CBFB423ADF80630B9E7FE
:100710000022C8E7C3F56D6308339BB20E2BCCD81B
:100720000023D3E784010020820100208001002003
:10073000880100208C01002037B568460D4614461C
:10074000FFF786FFBDF8000030B1BDF802302B6026
:10075000BDF804302360012003B030BD032821D848
:10076000DFE800F0020B12190F4B1A68B2FA82F29E
:10077000520904210D4802F09BBE0B4B5A68B2FA95
:1007800082F252090821F5E7074B9A68B2FA82F221
:1007900052091021EEE7044BDA68B2FA82F25209EC
:1007A0002021E7E7704700BF9001002000100240C1
:1007B000032821D8DFE800F0020B12190F4B1A684A
:1007C000003A18BF012204210D4802F071BE0B4B04
:1007D0005A68003A18BF01220821F5E7074B9A68CA
:1007E000003A18BF01221021EEE7044BDA68003A04
:1007F00018BF01222021E7E7704700BF90010020C9
:100800000010024003280DD8DFE800F00206080AB5
:100810000421054802F051BE0821FAE71021F8E74B
:100820002021F6E7704700BF00100240012380F846
:10083000741080F87530704700207047034B416496
:10084000003918BF01211970704700BFAB24012087
:1008500000207047836B0BB10846184770474FF66E
:10086000FF707047406803689B691847704770477E
:100870007047000070B5044600F050FC2368D3F8C0
:100880008850044BD4E90F122046AC46BDE87040B6
:10089000604700BF000000D008B503680446D3F8E5
:1008A00080309847236820469B6F984700F0ECF80B
:1008B000236820461B6F9847292000F057FF00F05F
:1008C000E3F8236820461B6F9847F8E710B5044605
:1008D00008F0AAF923682046D3F8AC30BDE81040F0
:1008E000184700F00DBC00F011BC00F03DBC00F05A
:1008F000E3BB00F03DBC00F045BC00F0E7BB07F0F7
:10090000FABB10B57C21044618F032FF204610BD1A
:1009100090F877301BB1406803681B681847184689
:100920007047000010B590F8341090F874400C4BEC
:100930008C421A7809D03AB90A4A0B4914880888B7
:1009400010800C8001221A7010BD002AFCD0054ACC
:1009500005491488088810800C800022F3E700BF46
:10096000A4240120A0240120A224012070B50D465A
:10097000194635B9094B0A4A0A4840F2D22118F003
:1009800025FFC0E90F52084B003A18BF01221A7028
:100990000368BDE87040D3F88C3018479CA9010863
:1009A000D4A9010822AA0108AA24012008B5094BEC
:1009B0001B888B4203D8084B1B88934205D9074BF1
:1009C000074A08489E2118F001FF074B1980074B82
:1009D0001A8008BDA0240120A224012067AA0108D2
:1009E000CAAA010822AA0108A6240120A8240120DD
:1009F000012108B50022084604F077FD0A4B186073
:100A000028B90A4B0A4A28210A4818F0DFFE0022BA
:100A10000421012004F006FE074B186018B9074BAB
:100A2000034A2C21F0E708BDA4010020E8AB01082F
:100A300031AC010860AC0108A0010020AFAC010896
:100A4000024B4FF0FF31186804F099BDA40100205B
:100A5000014B186804F0BEBDA4010020024B002128
:100A6000186804F08CBD00BFA4010020FFF7F0BFA0
:100A700003480449006800231A4604F00EBE00BF74
:100A8000A00100200400002013B5084C00231A46E2
:100A900001A9206804F031FE20684FF0FF330022E6
:100AA00001A904F02AFE02B010BD00BFA001002081
:100AB00003685B6C18470120704703689B6A1847FE
:100AC00082B0002301930D4B1A6B42F400021A63AB
:100AD0001A6B02F400020192019A1A6942F40002B0
:100AE0001A611A6922F400021A61054B054A1A615B
:100AF000054B4FF080629A6002B0704700380240A8
:100B0000841400204D0B000800E100E040F2EF30BB
:100B100070470000054B0360054B4FF08062C3F83F
:100B20008820BFF34F8FBFF36F8F704750AE01081F
:100B300000E100E010B504464FF45A61FFF7EAFF08
:100B4000204618F015FE204610BD0000024B1B6821
:100B5000586803685B691847AC24012070B50446E7
:100B600025460A4B0C30002660602672667245F8F6
:100B7000203B6022294608F095F904F55A63EE609F
:100B80002435AB42FBD1204670BD00BF50AE0108FA
:100B900008B50B290BD8DFE801F01206100A0A0A83
:100BA0000A0808080808012008BD0520FCE7054BD5
:100BB000054A0648662118F009FE0020F4E70220E5
:100BC000F2E700BFF1AC01080CAD010856AD010819
:100BD00008B50A2909D8DFE801F010060E08080850
:100BE000080606060600012008BD054B054A064812
:100BF000872118F0EBFD0020F6E70220F4E700BFA4
:100C0000F1AC0108A3AD010856AD01082DE9F84388
:100C10004F7F0C4639468146FFF7BAFF94F81E8095
:100C2000054641464846FFF7B3FF4146064648465B
:100C3000FFF7CEFFA18A628B424B521A1A649A6167
:100C4000228B521A1A61E28A586342EA01425A64BC
:100C500020696268D863DA60216894F81CC0802932
:100C60004FEA0C6226D010D8202945EA020461D050
:100C700040295FD004295DD0324B2A4342F4003230
:100C80004745DA615AD0304A40E0B1F5807F07D05D
:100C9000B1F5007FF0D142F4003242F0090203E0E6
:100CA00042F4003242F00A02DA61E2681A625E62DD
:100CB00058612AE0A4682A4342F40032211DD96217
:100CC000DA6122785E62586142B1012A21D01F4B5D
:100CD0001F4A204840F2111118F078FDDA69618846
:100CE00022F47F42013922F0100242EA0122DA6145
:100CF0000120144BDA6942F02002DA61DA699206C7
:100D0000FCD410229A600028BDD0134A1A60BDE8B6
:100D1000F8836288D969541E21F47F4222F01002C0
:100D200042EA0422BCF1FF0042F0100218BF012089
:100D3000DA61DEE744F40034DC61B8E740F2012216
:100D4000E4E700BF00B0024001020100EEAD01087F
:100D500008AE010856AD01080102020070B50C464C
:100D6000897FFFF735FFA68AE18A628B154B2569DB
:100D7000586341EA0641921B5964DD631A64266890
:100D8000E168082E0DD19A611A615862207F0E4ADF
:100D900042EA0062DA610D4A19625D61DD601A6043
:100DA00070BD0022D8611A6148090A0A02F478422B
:100DB00000F4FC600243C1F3C4010A439A63044A8D
:100DC000EDE700BF00B0024009000100010202008F
:100DD00001020300012070470C2070470C2303FB25
:100DE0000100083070470C2303FB010008307047F6
:100DF000012070474FF41F7070474FF41F7303FBBF
:100E00000100083070474FF41F7303FB01000830E6
:100E10007047012070471020704700EB0110083028
:100E2000704700EB011008307047084601F068B9C0
:100E300010B5034B0360044606F0DFFB204610BDEF
:100E400008AF010810B50446FFF7F2FF2046142151
:100E500018F08EFC204610BD10B5034B036004460D
:100E600006F0CBFB204610BDD4AE010810B50446F9
:100E7000FFF7F2FF20464FF4217118F079FC20466D
:100E800010BD000010B5034B0360044606F0B5FB2F
:100E9000204610BDA0AE010810B50446FFF7F2FFD2
:100EA0002046182118F064FC204610BD10B5084BF0
:100EB0000360044600F52C70FFF7BAFF04F12C0024
:100EC000FFF7CAFF04F11400FFF7DCFF204610BD56
:100ED0003CAF010808B50248FFF7E8FF08BD00BFB6
:100EE000AC01002010B50446FFF7E0FF20464FF4A8
:100EF000846118F03DFC204610BD00002DE9F3414F
:100F000000F088FF054600F089FF002401462346D3
:100F10002846224600940CF01FFE254B254A264DFC
:100F20001A60204601F092FC24480CF07DFD2B78DD
:100F3000BFF35B8FDB0735D4284618F01BFC88B362
:100F40001F4C204B236004F5327604F1140004F1A9
:100F50002C0804F52C776060C4F80880E7602661EF
:100F600006F04CFB184B6361404606F047FB174BFD
:100F7000E362384606F042FB154BC4F8B03204F584
:100F8000317001F045FD224604F53171304601F023
:100F9000CFFC304601F0B4F80E4818F035FC284676
:100FA00018F0F4FB0C4802B0BDE8F041FFF762BC5A
:100FB00008250120EC130020A801002008000020D3
:100FC000AC0100203CAF0108A0AE0108D4AE01087E
:100FD00008AF0108D50E0008701300200148FFF784
:100FE0005BBC00BF7013002070B5234C234E244B14
:100FF000244D23603046FFF7B1FD28460FF0B6FEC2
:10100000214B2248DC60224C03600022F0204FF488
:1010100080712080C3E912121E4C1F492080C3E951
:1010200019121E4C1A864FF080714FF4A070596748
:101030000121C3E90422C3E90622C3E90822C3E966
:101040000A22C3E90E22C3E91022C3E91422C3E92C
:1010500016221A6683F86C201A67C3E9016583F8C3
:10106000781020800E4C83F8341020800D480270D8
:101070000D4A1A6070BD00BFCC050020D0050020CD
:101080008CA90108F013002070130020AC2401206B
:10109000A0240120A624012001000001A224012097
:1010A000A8240120A424012018AB01080148FFF75F
:1010B00031BD00BFD0050020034B902283F85A2396
:1010C00083F85823704700BF00E100E0094A0A494D
:1010D000D3680A48C3F30A03013B9BB20B80116932
:1010E000C1F30A01013901801364536B43F001031A
:1010F00053637047006801406C1400206A1400209C
:10110000014BD3F8AC00704700680140024B01224C
:10111000C3F8AC105A6270470068014070B50446CD
:1011200007F03FF823685D6E0AF030F9014620466B
:10113000A8472368054AD3F888502046AC460023C8
:10114000BDE87040A2F51631604700BF00B004D082
:1011500007F00EB890F84B3013B1024B01221A7011
:1011600007F012B86814002006F0CBBF07F025B9CD
:10117000034B4FF080629A604FF080729A60704724
:1011800000E100E0084B4FF08062C3F88820BFF315
:101190004F8FBFF36F8F4FF08072C3F88820BFF37B
:1011A0004F8FBFF36F8F704700E100E010B5144C14
:1011B000236823B3134B144A1B6C11888B4213D141
:1011C000124B198802F05AFF226892F866300133F8
:1011D00082F86630FFF74CFC206807F025FDBDE87B
:1011E00010400020FFF7BABA02F048FF20680368F9
:1011F0001B6A9847BDE810400020FFF7D9BA10BD20
:10120000AC240120006801406C1400206A14002006
:1012100007B5064BADF806001B68054801220DF125
:10122000060103F077FC03B05DF804FB100000201A
:10123000F415002008B5642004F04BF9FBE700002A
:1012400030B595B0102200210AA818F04BFB1422EB
:10125000002103A818F046FB00241D4B01941A6CD2
:1012600042F080521A641B6C03F080530193019B7F
:10127000184B02941A6842F440421A601B6803F447
:10128000404302930122029B4FF48033CDE90823AF
:1012900002254FF48003CDE90E5308214FF4A873C3
:1012A000CDE9101308A804231393129502F004FF4C
:1012B0000F23CDE903354FF4A0504FF48053CDE90F
:1012C0000603052103A8059403F0D4F815B030BD3A
:1012D000003802400070004080B59AB001F064FE12
:1012E000FFF7AEFF142200210DA8002418F0FAFA2F
:1012F000C54B00941A6BC548C54D42F010021A63E5
:101300001A6B02F010020092009A01941A6B42F0DC
:1013100020021A631A6B02F020020192019A0294D1
:101320001A6B42F080021A631A6B02F0800202927A
:10133000029A03941A6B42F004021A631A6B02F0C9
:1013400004020392039A04941A6B42F001021A6396
:101350001A6B02F001020492049A05941A6B42F08F
:1013600002021A631A6B02F002020592059A0694B1
:101370001A6B42F040021A631A6B02F040020692A6
:10138000069A07941A6B42F008021A631B6B03F06B
:101390000803079322463C21079B02F089F89D48E9
:1013A0002246042102F084F89B4822464FF4405123
:1013B00002F07EF8224699484FF4C04102F078F8D6
:1013C00001264FF003083C239048CDF840800DA93A
:1013D00002274FF00409CDE90D360F9401F082FF8A
:1013E0008C480F940DA9CDE90D96109701F07AFF66
:1013F0004FF4405388480DA9CDE90D36CDE90F478C
:1014000001F070FF0DA94FF4C0438448CDE90D36BB
:10141000CDE90F4701F066FF8148824B036001F080
:1014200055FE814A814B2C62C5E9002328464FF4C2
:101430008043C5E90434C5E90244C5E9064402F025
:1014400021FA1021284602F05DFC2146284602F0D0
:1014500078FC7748774984624FF48273C0E90013BF
:101460004FF400751823C0E906530A23724DC36276
:10147000C0E90244C0E90444C0E9084403F0EEFABC
:101480006E4B0D974FF0100CC5E900364023C5E9AF
:1014900004C34FF4C073C5E906344FF40063C5E9D3
:1014A00008344FF40053AB620DA907232846CDE959
:1014B0000E39CDE910384FF0080AC5E90249CDE9E7
:1014C000127703F0CBF94FF6FF7209A92846CDE950
:1014D0000AA6089409960C9403F0E0F9304601F04E
:1014E0008FFD4FF6FF7209A92846CDE9097ACDE9AB
:1014F0000B6403F0D3F94FF6FF7209A92846CDE932
:10150000098ACDE90B9403F0C9F94FF40C730893E1
:10151000089B0C934FF6FF7209A92846CDE9099A5A
:101520000B9603F0BBF940F26A51284603F0D4F958
:10153000342221460DEB020018F0D4F9404D414B06
:10154000AC86C5E900340923C5E905361D2340F200
:101550000D1EC5E9073840F24313C5E909E32846E3
:1015600040F2471340F21718C5E90B83C5E902445E
:101570002C6185F8364002F089FCFF21F022CDE98C
:1015800012144FF4806905214FF4A073CDE90E24A5
:10159000CDE91491CDE916420DA922462846CDE9A0
:1015A0001037294D18930D94ADF864408DF86640BE
:1015B00002F037FD254B2B601B6898472B68244DA4
:1015C000DB689847234BC5E90A47C5E90C44284620
:1015D000C5E90034C5E9027401F088FD31462846AA
:1015E00001F03CFEFEF7FFFF03F0FEFE1A4A1B4827
:1015F000214603F025FF1A4B1A4A186021461A4863
:1016000003F01EFF32E000BF00380240001002402D
:10161000C414002000080240000C024000180240E0
:101620007C14002000300240005C0040A0860100D5
:10163000F415002000500140C0150020400100A01A
:1016400018150020006801407414002014000020C8
:101650008414002000B0024084AF01083512000855
:101660007814002060AF0108EB050008024B1860F9
:1016700003F0CCFEFEE700BF7014002070477047F7
:101680007FB5094B8DF817201B6802930DF11702E7
:101690000123009201930A460146044802F09AF998
:1016A00007B05DF804FB00BF0C000020C41400204C
:1016B0007FB500238DF81730084B1B6802930A464C
:1016C00001230DF11701009101930146044802F036
:1016D00011FA9DF8170007B05DF804FB0C0000201C
:1016E000C41400201FB5084C24680092CDE90134D1
:1016F0000A4601230146054802F0FCF9003818BFEC
:10170000012004B010BD00BF0C000020C414002054
:1017100001F076BC08B506480022042101F0C8FE9D
:10172000BDE8084002480122042101F0C1BE00BF0B
:101730000008024038B50B4D044601220A484FF418
:10174000005101F0B5FE00220421284601F0B0FE50
:101750002046FFF75DFD28460122BDE83840042100
:1017600001F0A6BE00080240000C024038B50B4D47
:10177000044600220A484FF4005101F099FE00226D
:101780000421284601F094FE2046FFF741FD28463B
:101790000122BDE83840042101F08ABE0008024061
:1017A000000C0240F7B5144E144F05460C46304667
:1017B0000022042101F07CFE00224FF40051384643
:1017C00001F076FE2846FFF723FD0D4B0D481B6800
:1017D000224601A903F040FB384601224FF4005194
:1017E000019C01F065FE30460122042101F060FEFB
:1017F000204603B0F0BD00BF00080240000C0240CC
:1018000010000020F415002001F0FABB0268034B21
:101810009A4201D101F0E2BB704700BF00100040C6
:101820007047000082B00E4B00220092596C41F4C8
:1018300080415964596C01F48041009100990192F2
:10184000196C41F0805119641B6C03F080530193B3
:10185000019B0F216FF0010002B001F0F7BB00BF48
:10186000003802400268094B9A4282B00BD1002333
:101870000193074B1A6B42F480521A631B6B03F4FB
:1018800080530193019B02B0704700BF00300240BB
:101890000038024007B50F4B02689A4216D1002269
:1018A000A3F5F0430192196B41F4000119631B6B1E
:1018B00003F40003019305215A20019B01F0C6FBAC
:1018C0005A2003B05DF804EB01F0F2BB03B05DF801
:1018D00004FB00BF00B002402DE9F043044689B08C
:1018E0001422002103A817F0FDFF2268244B9A421E
:1018F00043D1244C244800250095236B43F0040376
:101900002363236B03F004030093009B0195236B77
:1019100043F001032363236B03F001030193019B55
:101920004FF012094FF400734FF00108032704260B
:1019300003A9CDE90339CDE90587079601F0D2FC6B
:101940004FF480731148079603A9CDE90339CDE917
:10195000058701F0C7FC0295236C43F40003236460
:10196000236C03F400030293029B236A43F40003F5
:101970002362236A23F40003236209B0BDE8F083E5
:10198000005C0040003802400008024000000240B5
:10199000F0B599B004461422002107A817F0A2FF61
:1019A00030220DEB0200002117F09CFF22685E4BF5
:1019B0009A4240F0B78008230C93C023109304236D
:1019C00012930CA84FF40033159302F01DFE08B1DA
:1019D000FFF726FF554B5648002400945A6C42F0FE
:1019E00080625A645A6C02F080620092009A0194FC
:1019F0001A6B42F020021A631A6B02F02002019265
:101A0000019A02941A6B42F001021A631A6B02F0F7
:101A100001020292029A03941A6B42F002021A63C4
:101A20001A6B02F002020392039A04941A6B42F0BA
:101A300040021A631A6B02F040020492049A059461
:101A40001A6B42F004021A631A6B02F00402059248
:101A5000059A06941A6B42F008021A631B6B03F096
:101A60000803069302250E26069B0B964FF480630F
:101A700007A9CDE90735CDE9094501F033FC41F669
:101A800058032C480B9607A9CDE907350927CDE95E
:101A9000094501F027FC032327480B9707A9CDE947
:101AA0000735CDE9094501F01DFC4FF4706322486C
:101AB0000B9607A9CDE90735CDE9094501F012FCE0
:101AC0004FF40C631D480B9607A9CDE90735CDE906
:101AD000094501F007FCC02319480B9607A9CDE979
:101AE0000735CDE9094501F0FDFB082315480B96A4
:101AF00007A9CDE90735CDE9094501F0F3FB4FF41E
:101B0000A0530E480B9707A9CDE90735CDE9094544
:101B100001F0E8FB58202246052101F097FA5820F1
:101B200001F0C6FA19B0F0BD00680140003802406B
:101B3000001402400000024000040240001802406D
:101B400000080240000C024010B5044688B0142280
:101B5000002103A817F0C6FE2268144B9A4223D135
:101B600003F56843002101915A6C114842F4801238
:101B70005A645A6C02F480120192019A02911A6B13
:101B800042F020021A631B6B03F020030293029BB6
:101B90004FF4607202230321CDE903230523CDE92D
:101BA000061303A901F09EFB08B010BD00500140D0
:101BB000001402402DE9F04186B0002303932B4B23
:101BC0001C68002C4FD14FF00108C3F80080284B4F
:101BD00000949A6B274842EA08029A639B6B03EAD7
:101BE00008030093022703260C25009B01A94FF64A
:101BF0003F03CDE90137CDE9046501F073FB1E48D1
:101C0000059501A9CDE90187CDE9034601F06AFBFD
:101C100048F233131948059501A9CDE90137CDE9FB
:101C2000034601F05FFB4FF683731548059501A944
:101C3000CDE90137CDE9034601F054FB4CF20373C3
:101C40001048059501A9CDE90137CDE9034601F01A
:101C500049FB60230C48059501A9CDE90137CDE981
:101C6000034601F03FFB06B0BDE8F0814C160020B2
:101C700000380240001402400008024000180240F0
:101C800000100240000C02400004024030B5014642
:101C900089B00022362001F0D9F9362001F008FA87
:101CA0000025154B02951A6C144C42F010021A6470
:101CB0001B6C03F01003029301A903A8029B02F01E
:101CC00085FC02F073FC0E4B236040F2E733E360C7
:101CD00040000C4BB0FBF3F00138606020462561FA
:101CE000A56003F0A5FA20B9204603F05BF909B01E
:101CF00030BD0120FBE700BF003802405016002035
:101D00000010004040420F007047FEE7FEE7FEE78C
:101D1000FEE77047014803F083B900BF501600206A
:101D2000014802F021B900BF18150020014801F058
:101D30000BBA00BF841400200120704708B517F0CB
:101D400077FD162303604FF0FF3008BD08B517F08C
:101D50006FFD16230360FEE770B50D4614460E4670
:101D6000731B9C4201DC204670BDAFF3008006F877
:101D7000010BF5E770B50D4614460E46731B9C42E9
:101D800001DC204670BD16F8010BAFF30080F5E7CB
:101D90004FF0FF3070474FF400534B600020704706
:101DA00001207047002070470A4A116808B50346B1
:101DB00009B9094911601068694603448B4206D984
:101DC00017F036FD0C2303604FF0FF3008BD1360A1
:101DD000FCE700BF9816002050270120704710B57F
:101DE0000421044617F0C4FC204610BD012908B5A3
:101DF00006D0022908D059B900F074FD006808BD6A
:101E000000F070FD4068FAE700F06CFD8068F6E7CE
:101E10000020F4E700487047BCAF01080720704776
:101E200013B5002451B1036801948DF8034001AA51
:101E30009C680DF10303A04702B010BD0846FBE704
:101E4000408970478089704780887047837980888F
:101E5000184480B27047C07900F07F007047C079A5
:101E6000C0097047704710B50821044617F080FC80
:101E7000204610BD7047704700F5967308684968A2
:101E800003C3704770477047416070477047000058
:101E9000064BC0F848310023C0F84C3100F5A07360
:101EA000C0F84401C0F83C31704700BF511F000822
:101EB0000123037270477047704710B4C2684168CD
:101EC0005410034601EB6200D20748BF0A599B68D1
:101ED0005DF8044B48BFD358184743682BB183685B
:101EE0002BB9C06800F00100704718467047012008
:101EF000704710B50C21044617F03AFC204610BD7F
:101F000010B51021044617F033FC204610BD10B563
:101F10004FF4AC71044617F02BFC204610BD08B5F9
:101F200009F034FABDE8084009F0D4BD10B5044604
:101F3000D0F83C0158B10368DB68984738B1D4F851
:101F40003C0103689B6898470023C4F83C3110BDEE
:101F50002DE9F14FD0E9545A0746A86803681B6A77
:101F60009847B0F51F7F05D2454B464AA321464806
:101F700017F02CFC686803681B6A98470F2803D881
:101F8000424B404AA421F2E7E86803681B6A98477D
:101F90000B2803D83E4B3B4AA521E8E7DFF8F89031
:101FA00009F0F4F909F0F8F9D9F8000010B1036864
:101FB000DB689847D9F8000010B103681B689847A0
:101FC000DFF8D880D8F8000010B103685B69984743
:101FD000D7F8380110B103685B689847D8F800005B
:101FE00010B103681B689847D7F8380110B103682F
:101FF0009B689847E868036800215B6A98474FF040
:10200000000B244B03600446C0F804B080F808B00D
:10201000A868036859465B6A9847064600F0EEFCDC
:102020006868036859465B6A98473146054600F080
:1020300097FCC9F80040C7F83851C8F80060E5B10E
:102040002B1DCAF800303368C5F808A03046DB689D
:10205000F56398472B6828461B6898472146304609
:102060000AF078FD236820461B69984723685B695E
:10207000204601B0BDE8F04F18472B46E1E700BF0E
:1020800058B00108E6B00108E2B1010829B2010820
:10209000CCB20108DCB30108EC240120E8240120C3
:1020A000F8B5044617460E4609F090F9104B002586
:1020B000C4E954760F4E1C60C4E952550E4B30688B
:1020C00023600E4BC4E95035036801219B68C4E9C5
:1020D0004E559847284600F0B9FB336893F87620B0
:1020E0000AB1D86C00B9986810F027FC2046F8BDFA
:1020F000F8240120AC24012090B3010878B3010832
:10210000064BC0F848310023C0F84C3100F5A073ED
:10211000C0F84401C0F83C31704700BF511F0008AF
:10212000006A7047406A704770478B8880690A6808
:10213000DB0A50F823001044704710B5C2B1137B7E
:10214000B3B1547BD27A240204F4E0641443C2692C
:1021500098B202EB840213888B4202D192F90200FA
:1021600010BD05D8013880B204320028F3D1F7E75A
:102170000020F5E710B52821044617F0F9FA2046AB
:1021800010BD000030B589B00446BDF8505006952A
:10219000BDF84C5005959DF8405004959DF83C5075
:1021A00003959DF8385002959DF8345001959DF89F
:1021B000305000950AF02EF9064B2360119BA36165
:1021C000129BE361159B2362169B6362204609B054
:1021D00030BD00BF00B40108002070478180704707
:1021E000C1807047018170474181704770477047D7
:1021F00070477047704710B4C4880368121B848806
:102200005B6D091B12B25DF8044B09B218474FF61B
:10221000FF7383814FF0FF3303621368C361106063
:1022200070477047704770477047704790F8252097
:102230001AB190F8242002B11860704770477047B7
:10224000704770477047704770B4C468456866103F
:10225000034605EB6400E40748BFAC599B6848BFE0
:10226000E35870BC184743682BB183682BB9C0682A
:1022700000F001007047184670470120704730B4E5
:10228000C26844685510034604EB6200D20748BF99
:1022900062599B6830BC48BFD358184743682BB17C
:1022A00083682BB9C06800F001007047184670477A
:1022B0000120704710B51021044617F059FA204646
:1022C00010BD10B51021044617F052FA204610BD7B
:1022D00010B54FF41F71044617F04AFA204610BD9E
:1022E00090F8252012B103685B691847704700F128
:1022F00098028A4202D10368DB6A1847704710B41B
:1023000000F58C748C4205D103685DF8044B1B6B9F
:10231000114618475DF8044B704770B503680446D2
:102320001B6B154698472368294620465B6BBDE822
:10233000704018470022C0E90122C0E90322C0E929
:102340000522C0E907224FF480728284014A0260AC
:10235000704700BF58B4010810B52622044600217A
:1023600017F0C0FA2046FFF7E5FF0A4B23600A4B3F
:10237000A3624FF6FF73A3854FF47F020023C4E9E5
:102380000C324FF0FF32C4E910232387E363204669
:1023900010BD00BFD0BA010850B001082DE9F04FC0
:1023A00004468DB0264600250AF028FA8C4BE563DA
:1023B00046F8403B29462622304617F093FA30462D
:1023C000FFF7B8FF04F16C08864B23644FF0FF0958
:1023D0004FF6FF772622294684F86690A566404688
:1023E000ADF8287017F07EFA4046FFF7A3FF7E4B4A
:1023F000E366BDF82830A4F8923004F1980B84F815
:1024000094900AA9404607F054FA294626225846D5
:1024100017F068FA5846FFF78DFF04F1D00A012340
:10242000724A84F8BC30C4F89820A4F8C670A4F8A6
:10243000C87084F8CA70A4F8CC70C4F8C05004F511
:102440008C7784F8C4505046FFF786FF04F5057971
:10245000384605F0CFFD4846FFF77EFF644AC4E9E1
:102460009724644AC4E99925634AC4E99B24634AD2
:102470002946C4E99D2530462A46FFF74EFF3046DF
:10248000F021FFF7AFFE30464FF4A071FFF7ACFE2E
:102490004FF07F42A26629462A464046FFF73DFF9D
:1024A00004220AA94046ADF8282007F002FA58464F
:1024B00048223821FFF731FF0123A4F8CC300AAAC3
:1024C00009A95846ADF82830ADF8245007F046F970
:1024D00004F51772C4F8C02050461E224321FFF7AE
:1024E0001CFF4FF0FF33C4F80031514604A8A4F894
:1024F000045106F057FE04AB93E8070004F5867C10
:102500003F4B0A938CE8070001230AA95046ADF817
:102510002C3007F0C9F83846FB220F21FFF7FDFEEB
:102520000523ADF82030ADF824300AAA0623ADF813
:10253000283008A91346384609AA05F0B7FDC82275
:102540000223CDE9005238460C220A2105F023FC73
:10255000C8222946384605F082FB2946384605F050
:1025600000FB04F51B73C4F810324846CE2221212B
:10257000FFF7D3FE4FF0FF32C4F84422494604A8C7
:10258000A4F8485206F00EFE04AA07CA04F5147314
:1025900083E807001A4B0A930AA94846ADF82C5065
:1025A00007F082F8201D3146039005F03BF80398B0
:1025B000414605F037F80398594605F033F803987B
:1025C000514605F02FF80398394605F02BF803988B
:1025D000494605F027F820460DB0BDE8F08F00BF52
:1025E000F0B4010860BB0108C8BB01085CBA01086F
:1025F000C0B40108EF220008D8B40108FF22000887
:1026000050B001087047000030B5154D2C78BFF36D
:102610005B8F14F001048DB01ED1284617F0AAF884
:10262000D0B13F2307930F4B06930F4B0F49104830
:1026300008940122CDE904430423CDE90132CDE918
:1026400009440A2303940094FFF79CFD094817F0FE
:10265000DBF8284617F09AF805480DB030BD00BFEA
:102660009C16002014C8010848C80108F8C60108D3
:10267000A0160020052600087047000030B5154D53
:102680002C78BFF35B8F14F001048DB01FD1284666
:1026900017F070F8D8B13F2307930F4B06930F4BF9
:1026A00005930123CDE9034302930423CDE90033CD
:1026B0000B490C48089414231222CDE90944FFF772
:1026C00061FD094817F0A0F8284617F05FF80548A3
:1026D0000DB030BDC816002018C801084CC801084C
:1026E00008C70108CC1600207926000870470000B2
:1026F00030B5154D2C78BFF35B8F14F001048DB00D
:102700001ED1284617F036F8D0B13F2307930F4B60
:1027100006930F4B0F49104808940122CDE904435A
:102720000423CDE90132CDE9094428230394009420
:10273000FFF728FD094817F067F8284617F026F834
:1027400005480DB030BD00BFF416002044C8010894
:1027500050C8010804C80108F8160020ED2600083A
:1027600000207047002070470EB403B503AB002172
:1027700053F8042B019309F07FFC02B05DF804EBE1
:1027800003B070470CB407B504AB53F8042B0193A6
:1027900009F072FC03B05DF804EB02B07047000072
:1027A000436C10B5044673B3038F2BB9184B194A09
:1027B000C021194817F00AF8C38E00EB43035B8C65
:1027C0000BB30AF0F6FE238F012B03D8134B144AE8
:1027D000C521EEE7E28E531C9BB2092B194688BF38
:1027E000A3F10A0104EB410140F63F10498C8142FC
:1027F00009D10A2B04EB420228BF002304EB430358
:10280000508C588451842046BDE810400AF0D4BD55
:1028100024B501082DB50108D8B5010822B6010874
:1028200030B601080AF08FBD10B586B002AC84E85E
:1028300006001A460AAB05930193099B00932146B3
:10284000089B08F0D8F806B010BD000038B518BBDA
:10285000124B13481B681349B3B11A689C681A4499
:1028600002605A681A440A601C440F4B00221A8006
:1028700000F038F8054600F033F80C4B1C600C4BA8
:102880001D600C4B188007E00B4B03600B4B0B607B
:102890000B4B1C68002CE8D138BD00BF201700206E
:1028A00024170020281700202C170020FC240120CA
:1028B00004250120002501205CC8010854C8010836
:1028C00098C80108044B1B6853F82100034B1B6890
:1028D00003EB4000704700BF28170020241700209A
:1028E00002207047004870473017002010B5FFF7EE
:1028F000C5FE044C2060FFF7FBFE6060FFF784FE1E
:10290000A06010BD30170020704710B54FF4AC71B7
:10291000044616F02DFF204610BD10B50446D0F831
:10292000540100F079F82046BDE8104008F0DCBB07
:1029300010B50446FFF7B4FB014B2360204610BDE1
:102940000CB70108704704387047704710B5102164
:10295000044616F00DFF204610BDA0F10400F5E777
:1029600010B500228260044AC16002F108042032DE
:102970000460426010BD00BF50B701087047704747
:10298000024BD0F848211A60704700BF3C17002066
:10299000FFF757BC10B54FF41F71044616F0E8FE60
:1029A000204610BD08B5054B1B682BB9044B054AE2
:1029B0000548872116F00AFF008808BD342501204C
:1029C00078B70108B4B70108E7B7010838B504467D
:1029D000C630FFF7E7FF054604F1CC00FFF7E2FF42
:1029E000854208BF0122BDE83840034818BF0022D5
:1029F0004FF4005100F05CBD0018024010B50446D1
:102A0000FFF7CCFC014B2360204610BD34B8010811
:102A1000002202607047000038B5094D094A2B6852
:102A20001468013393FBF4F204FB12342B602CB9CD
:102A300005484FF4804100F040FD2C6038BD00BFD8
:102A4000401700203C17002000180240F02070477B
:102A50004FF4A07070472920FEF788BE2820FEF7AB
:102A600085BE08B5FEF756FECA20FEF77FFEC320DE
:102A7000FEF760FE0820FEF75DFE5020FEF75AFECE
:102A8000CF20FEF773FE0020FEF754FEC120FEF7B4
:102A900051FE3020FEF74EFEED20FEF767FE64206B
:102AA000FEF748FE0320FEF745FE1220FEF742FE29
:102AB0008120FEF73FFEE820FEF758FE8520FEF756
:102AC00039FE0020FEF736FE7820FEF733FECB20DD
:102AD000FEF74CFE3920FEF72DFE2C20FEF72AFED5
:102AE0000020FEF727FE3420FEF724FE0220FEF72A
:102AF00021FEF720FEF73AFE2020FEF71BFEEA201B
:102B0000FEF734FE0020FEF715FE0020FEF712FE51
:102B1000B120FEF72BFE0020FEF70CFE1B20FEF777
:102B200009FEB620FEF722FE0A20FEF703FEA220D1
:102B3000FEF700FEC020FEF719FE1020FEF7FAFD9A
:102B4000C120FEF713FE1020FEF7F4FDC520FEF7AE
:102B50000DFE4520FEF7EEFD1520FEF7EBFDC7202C
:102B6000FEF704FE9020FEF7E5FD3620FEF7FEFDA1
:102B7000C820FEF7DFFDF220FEF7F8FD0020FEF78B
:102B8000D9FDB020FEF7F2FDC220FEF7D3FDB6203E
:102B9000FEF7ECFD0A20FEF7CDFDA720FEF7CAFDEB
:102BA0002720FEF7C7FD0420FEF7C4FD2A20FEF70C
:102BB000DDFD0020FEF7BEFD0020FEF7BBFD00207E
:102BC000FEF7B8FDEF20FEF7B5FD2B20FEF7CEFD9A
:102BD0000020FEF7AFFD0020FEF7ACFD0120FEF760
:102BE000A9FD3F20FEF7A6FDF620FEF7BFFD012060
:102BF000FEF7A0FD0020FEF79DFD0620FEF79AFDE2
:102C00002C20FEF7B3FDC820FEF7FEFD2620FEF7C0
:102C1000ADFD0120FEF78EFDE020FEF7A7FD0F20A1
:102C2000FEF788FD2920FEF785FD2420FEF782FDB2
:102C30000C20FEF77FFD0E20FEF77CFD0920FEF73D
:102C400079FD4E20FEF776FD7820FEF773FD3C20DF
:102C5000FEF770FD0920FEF76DFD1320FEF76AFDFB
:102C60000520FEF767FD1720FEF764FD1120FEF733
:102C700061FD0020FEF75EFDE120FEF777FD0020FC
:102C8000FEF758FD1620FEF755FD1B20FEF752FDFE
:102C90000420FEF74FFD1120FEF74CFD0720FEF744
:102CA00049FD3120FEF746FD3320FEF743FD42206B
:102CB000FEF740FD0520FEF73DFD0C20FEF73AFD36
:102CC0000A20FEF737FD2820FEF734FD2F20FEF7FF
:102CD00031FD0F20FEF72EFD1120FEF747FDC82025
:102CE000FEF792FD2920FEF741FDBDE808402C20AB
:102CF000FEF73CBD08B5FEF70DFD0321D320FEF71E
:102D000051FD80B208BD10B5C4B202220321204695
:102D1000FEF7B6FC0A20FEF7FBFC2046002203214A
:102D2000FEF7AEFCBDE810400220FEF7F1BC38B55E
:102D30000446E4B2FEF7A2FC00212046FEF7B8FCF0
:102D4000012105462046FEF7B3FC40EA052080B28B
:102D500038BD10B5C4B240212046FEF7A9FC0306D9
:102D600007D54C212046FEF7A3FC003818BF0120F0
:102D700010BD01224B212046FEF782FC2046002296
:102D80004B21FEF77DFC0020F2E773B50423C4B2AB
:102D90000E461546D7210DEB03022046FEF7A2FC96
:102DA000019B1BBA1A0DC3F30B23328020462B80E4
:102DB00001224B21FEF764FC00224B212046FEF746
:102DC0005FFC02B070BD000010B50A4B1A7890424B
:102DD00004460DD0597888420AD00AB141B901227F
:102DE0009C54FEF74BFC2046BDE81040FFF78BBF1C
:102DF00010BD00BF4417002010B5C4B20921204601
:102E0000FEF756FC40F00100C2B209212046BDE8A1
:102E10001040FEF735BC10B5C4B209212046FEF7BC
:102E200047FC092100F0FE022046BDE81040FEF7F5
:102E300027BC38B5C4B20D4620460A21FEF738FC3F
:102E40002843C2B20A212046BDE83840FEF718BC2C
:102E500007B50190FEF713FC01981F21FFF7E9FF6A
:102E6000019803B05DF804EBFFF7C6BF38B5C4B2F4
:102E70000D4620460A21FEF71BFC20EA0500C2B2DF
:102E80000A212046BDE83840FEF7FABB10B50446DB
:102E9000FFF7C1FF20461F21BDE81040FFF7E6BF46
:102EA00010B5C0B20C460B21FEF702FC204010BD4D
:102EB0001F21FFF7F5BF0A46C0B20B21FEF7E0BBAA
:102EC0001F21FFF7F8BF38B5C4B20D4620461721C1
:102ED000FEF7EEFB20EA0500C2B217212046BDE84E
:102EE0003840FEF7CDBB70B5C4B20646042120467B
:102EF000FEF7DEFB042100F0FB0205462046FEF74C
:102F0000BFFB3046F021FFF7DEFF05F0F802204658
:102F10000421FEF7B5FB492220212046FEF7B0FB35
:102F20000220FEF7F5FB204601222121FEF7A8FB37
:102F300020469A224121FEF7A3FB204601224A2186
:102F4000FEF79EFB204601224B21FEF799FB20460F
:102F500000224B21FEF794FB204601225621FEF76A
:102F60008FFB204601225821FEF78AFB20460122D2
:102F70004021FEF785FB2046FF220B21FEF780FB58
:102F8000BDE870400220FEF7C3BB0000054BD3F83C
:102F9000882042F47002C3F888204FF000629A60E3
:102FA000704700BF00ED00E008B50B4B1A6842F413
:102FB00000721A601A6842F480621A601A6842F459
:102FC00080721A60032000F02FF80020FEF75EFEEA
:102FD000FEF728FC002008BD003C0240034A044BD9
:102FE00011681B780B441360704700BF481700201E
:102FF00078000020014B1868704700BF4817002078
:1030000038B50446FFF7F6FF631C1CBF054B1B7861
:10301000054618BFE418FFF7EDFF431BA342FAD3A0
:1030200038BD00BF780000200749CA6822F4E0627A
:103030000302120403F4E063120C134343F0BF6372
:1030400043F40033CB60704700ED00E0164B30B521
:10305000DC68C4F30224C4F10705231D042D28BF36
:103060000425062B4FF0FF338CBF033C002403FAEA
:1030700005F521EA0501A34022EA0302A140002848
:1030800041EA0203ACBF00F16040084A4FEA031373
:10309000B8BF00F00F00DBB2AABF00F561401354C7
:1030A00080F8003330BD00BF00ED00E014ED00E01B
:1030B000002808DB4209012300F01F0003FA00F09A
:1030C000014B43F82200704700E100E010B50446D0
:1030D00050B1437903F0FF0213B90271FEF7C2FB4E
:1030E00001236371002010BD0120FCE710B50446E8
:1030F00030B390F8393003F0FF021BB980F8382064
:10310000FEF7C8FB22686168022384F8393013682F
:1031100023F440330B431360536BA16823F0070380
:103120000B435363136CE16823F47F5323F03F0395
:103130000B43136400200123E06384F8393010BD91
:103140000120FCE770477047036870B55E681D6832
:10315000F207044614D5E90512D51A6822F48072E4
:103160001A60C26B42F00102C26301229A6004231A
:1031700080F83930002380F83830436903B198472C
:10318000B20616D5AB0414D523681A6822F400528F
:103190001A6020229A60E36B43F00203E363042386
:1031A00084F83930002384F8383063690BB1204645
:1031B0009847300716D5290514D523681A6822F4D4
:1031C00000621A6008229A60E36B43F00403E36331
:1031D000042384F83930002384F8383063690BB154
:1031E0002046984772070BD56B0509D523681A68E6
:1031F00022F480621A6004229A602046FFF7A2FF40
:10320000B00714D5A90512D523681A6822F40072F4
:103210001A6002229A60E36BE363012384F8393079
:10322000002384F8383023690BB120469847F20612
:1032300013D5EB0411D523681A6822F480521A6062
:1032400010229A60E36BE363012384F83930002392
:1032500084F838302046FFF776FF70BDF0B590F85F
:103260003830012B4FF002032BD0012280F8393087
:1032700080F8382000EB0113D3E907425D6A184F4C
:1032800044EA0242093C012C9CBF05F07F431A43EB
:103290004FEA0116036888BF42EA056299B9596A84
:1032A00039400A435A62012C82699A6103D8426A02
:1032B00022F07F429A62012380F83930002380F89F
:1032C00038301846F0BDD96939400A43DA618219AD
:1032D000012C92691A619CBF25F07F451D62EAE7C7
:1032E000F0FFFC002DE9F74FDFF8C0916D4A002395
:1032F0000D6801249C4004EA050CAC4340F0B98001
:103300004D6805F003044FEA43080326671E06FADA
:1033100008F6012F6FEA060634D8876807EA060E1A
:10332000CF6807FA08F747EA0E078760476827EA79
:103330000C0EC5F300179F4047EA0E074760C768A9
:1033400007EA060E8F6807FA08F747EA0E07022C0D
:10335000C76019D14FEAD30A00EB8A0A03F0070BC2
:10336000DAF820704FEA8B0B4FF00F0E0EFA0BFEBF
:1033700027EA0E0E0F6907FA0BF747EA0E07CAF89D
:10338000207001E0032CDAD1076804FA08F43E400B
:10339000264315F4403F06606BD04FF0000ACDF88D
:1033A00004A0D9F84460404C46F48046C9F8446013
:1033B000D9F8446006F480460196019E23F0030686
:1033C00006F1804606F59C3603F0030ED6F8088019
:1033D0004FEA8E0E0F2707FA0EF7A04228EA0707DA
:1033E0004ED004F58064A0424CD004F58064A04225
:1033F0004AD004F58064A04248D004F58064A0421D
:1034000046D004F58064A04244D004F58064A04214
:1034100042D004F58064A04240D004F58064A0420C
:103420003ED004F58064A0420CBF09240A2404FAAB
:103430000EF43C43B46094686FEA0C06EF0254BF8C
:1034400034404CEA04049460D468AF0254BF344062
:103450004CEA0404D4605468AF0354BF34404CEACF
:10346000040454601468ED0354BF34404CEA04046F
:1034700014600133102B7FF43BAF03B0BDE8F08F35
:103480005446D4E70124D2E70224D0E70324CEE750
:103490000424CCE70524CAE70624C8E70724C6E7C6
:1034A0000824C4E7003C014000000240003802400C
:1034B0000AB1816170470904FBE7436901EA03022D
:1034C00021EA030141EA02418161704701684B69C9
:1034D00013F480634FF0000210D06FF480634B61EF
:1034E0002023026380F83D3080F83E20036C80F892
:1034F0003C2043F0040303640120704718467047E2
:103500002DE9F84606460F4691461D464FEA114AF8
:103510003368BAF1010F0CBF5C699C6927EA0404A7
:10352000A4B2B4FA84F46409A14501D0002017E0E4
:103530006A1CEED0FFF75EFD089BC01AA84201D8B6
:10354000002DE5D100232022336386F83D2086F844
:103550003E30326C86F83C3042F02002326401206A
:10356000BDE8F8862DE9F04104460F461646984618
:103570002568686927EA000080B2B8B16B695A050E
:1035800016D52B6843F400732B606FF480636B6176
:1035900020220023236384F83D2084F83E30226CEF
:1035A00042F00402226484F83C300120BDE8F0813E
:1035B000731CDED0FFF71EFDA0EB0800B04201D85F
:1035C000002ED5D100232022236384F83D2084F8E7
:1035D0003E30226C42F02002E4E770B504460D460E
:1035E000164621684B6913F0400301D0002010E01B
:1035F0004A69D2060ED56FF010024A612022236379
:1036000084F83D2084F83E30226C226484F83C30FB
:10361000012070BDFFF7EEFC801BA84201D8002DF1
:10362000DFD100232022236384F83D2084F83E303C
:10363000226C42F02002E8E770B504460D461646BB
:1036400023685B695B0701D5002070BD2046FFF74A
:103650003DFFA8B96A1CF3D0FFF7CCFC801BA84241
:1036600001D8002DECD100232022236384F83D20D3
:1036700084F83E30226C84F83C3042F02002226410
:103680000120E2E770B504460D46164623685B69E3
:103690001B0601D5002070BD2046FFF717FFA8B913
:1036A0006A1CF3D0FFF7A6FC801BA84201D8002DAE
:1036B000ECD100232022236384F83D2084F83E309F
:1036C000226C84F83C3042F0200222640120E2E7C0
:1036D0002DE9F0431546026885B0DDE90C7899467E
:1036E000136843F4807313600E463B46CDF80080A8
:1036F00000224FF001110446FFF702FF236838B1A2
:103700001B68DB0502D54FF40073236403200AE035
:1037100006F0FE061E61194943463A462046FFF769
:1037200021FF18B1012005B0BDE8F08323680390A4
:103730005A6903929B690393424639462046039B8C
:10374000FFF7A0FF40B1236C042B01BF2268136870
:1037500043F400731360E5E7B9F1010F236802D168
:10376000EDB21D61DFE72A0A1A613946424620465A
:10377000FFF788FF0028E6D12368F1E70200010087
:103780002DE9FF479A46036815461A6842F480629D
:103790001A601A68DDE90C7842F480721A600E46ED
:1037A0003B46CDF8008000224FF001110446FFF7A0
:1037B000A7FE236848B11B68DB0502D54FF40073F0
:1037C0002364032004B0BDE8F0875FFA86F906F0B1
:1037D000FE061E612A4943463A462046FFF7C2FECE
:1037E00008B10120EEE7236803905A6903929B69B0
:1037F0000393424639462046039BFFF743FF40B1FF
:10380000236C042B01BF2268136843F40073136018
:10381000E7E7BAF1010F23681AD1EDB21D61424604
:1038200039462046FFF72EFF0028E9D122681368A9
:1038300043F4807313604FF001110246CDF800800D
:103840003B462046FFF75CFE226860B11368B3E791
:103850002A0A1A61394642462046FFF713FF00281C
:10386000CED12368D9E749F00103136104494346E7
:103870003A462046FFF776FE003818BF0120A1E740
:103880000200010070B5044608B9012070BD90F82F
:103890003D3003F0FF021BB980F83C20FEF71CF816
:1038A000242384F83D3023681A6822F001021A604C
:1038B0001A6842F400421A601A6822F400421A6040
:1038C00000F074FE3F4B65689D4294BF3E4B3F4BFA
:1038D00098428CBF00230123002BD6D12268394E99
:1038E00053683B49B0FBF1F123F03F030B43B54272
:1038F000536088BF4FF49676136A88BF714323F0F4
:103900003F0384BF4FF47A76B1FBF6F101311943DE
:103910001162D169431E2B4821F44F41854221F0A9
:10392000FF0132D86D0040F6FC70B3FBF5F30133B4
:10393000034242D0C3F30B030B43D361D4E90730F6
:103940001168034321F0C0010B4313609168D4E96F
:10395000030321F40341034321F0FF010B43936070
:10396000D4E90530D168034321F0FF010B43D36054
:10397000136843F00103136000202023206484F8BF
:103980003D30206384F83E0080E7A06850B905EB25
:103990004505B3FBF5F30133C3F30B037BB143F4EC
:1039A0000043C9E719204543B3FBF5F30133C3F3E3
:1039B0000B0323B143F44043BEE70423BCE70123D8
:1039C000BAE700BFA08601007F841E00FF083D000B
:1039D00040420F002DE9F743044699460C9E0F46DE
:1039E0009046FFF707FB94F83D30202B054603D0A7
:1039F000022003B0BDE8F08300903C491923012266
:103A00002046FFF77DFD0028F2D194F83C30012BD1
:103A1000EED02068012384F83C300368D9075EBFEC
:103A2000036843F001030360036823F40063036049
:103A3000212384F83D30402384F83E300023236462
:103A40000A9B6362BDF82C306385638D2385284B08
:103A5000E362CDE900654B46424639462046FFF712
:103A600037FE00282AD00120C3E7FFF70BFE40B144
:103A7000236C042B01BF2268136843F400731360A6
:103A8000F1E7636A27681A4612F8011B396162621E
:103A9000628D218D013A92B262857A69481E80B2A8
:103AA000520720850AD548B15A783A6102336362D9
:103AB000638D013B02399BB221856385238D2A46A4
:103AC00031462046002BD0D1FFF7B6FD0028CFD1DC
:103AD0002268136843F400731360202384F83D3098
:103AE00084F83C0084F83E0083E700BF0200100029
:103AF0000000FFFF2DE9F043044687B09946109F70
:103B00000D469046FFF776FA94F83D30202B064696
:103B100004D00225284607B0BDE8F083009076491E
:103B2000192301222046FFF7EBFC0028F1D194F87D
:103B30003C30012BEDD02068012384F83C30036831
:103B4000DB075EBF036843F001030360036823F4EF
:103B500000630360222384F83D30402384F83E3024
:103B6000002323640E9B6362BDF83C306385638D44
:103B70002385624BE3622946CDE900764B464246F7
:103B80002046FFF7FDFD054608B10125C2E7228D5D
:103B90002368B2B902905A6902929A690292029A13
:103BA0001A6842F400721A60DFF85481238D002BEA
:103BB0002CD1202284F83D2084F83C3084F83E301B
:103BC000A8E7012A0AD11A6822F480621A600390D9
:103BD0005A6903929A690392039AE1E7022A0ED185
:103BE0001A6822F480621A601A6842F400621A604D
:103BF00004905A6904929B690493049BD4E705904E
:103C00005A6905929B690593059BCDE7032B56D80E
:103C1000012B15D1324639462046FFF7DEFC00283D
:103C2000B3D123681A69636A1A70636A01336362E5
:103C3000238D013B2385638D013B9BB26385B5E7F3
:103C4000022B00963B464FF000024146204619D118
:103C5000FFF756FC002898D123681A6842F40072D6
:103C60001A601A69636A1A70626A531C6362238D50
:103C7000013B2385638D013B9BB2638523681B69F0
:103C80005370D2E7FFF73CFC00287FF47EAF236837
:103C90001A6822F480621A601A69636A1A70636A89
:103CA000009601336362238D013B2385638D013BC5
:103CB0009BB2638502463B4641462046C8E73246F2
:103CC00039462046FFF789FC00287FF45EAF236861
:103CD0001A69636A1A70626A531C6362238D013B1E
:103CE0002385638D013B9BB263852368596949072E
:103CF0007FF55CAFC3E700BF020010000000FFFFCC
:103D00000400010010B590F83D30202BDCB216D134
:103D1000242380F83D3003681A6822F001021A60FB
:103D20005A6A22F010025A625A6A114359621A689A
:103D300042F001021A6080F83D40002010BD0220D0
:103D4000FCE730B590F83D30202BDCB216D102688C
:103D5000242380F83D30136823F001031360556A73
:103D60004FF6F0732B400B439BB25362136843F042
:103D70000103136080F83D40002030BD0220FCE7C5
:103D80000068D1F800C0D201843283182DE9F043D5
:103D9000C6685D684C68D1F8189005F470455D60A0
:103DA000C5680CF10107C5F30B45C6F30B463D444E
:103DB000264445EA06455D60C568CE68C5F30A0538
:103DC0002E449D6805F470459D60C7688D68C7F3F3
:103DD0000A0701353D4445EA06459D601D690E69A7
:103DE00025F007051D614FF0000E1E619D6991F8D9
:103DF000327091F83180C3F818E091F8305045EAFC
:103E0000096545EA082545EA07459D615D6925F094
:103E1000FF055D614D695D61DD6925F4E06525F0B3
:103E20000705DD61D1E907573D43DD619D6A4D6AB4
:103E3000C3F828E09D621EB3012E23D0B51E022DCB
:103E400022D9072E0CBF02250125DE6A06F0E026E6
:103E5000DE62A4EB0C048E6AC96A6C436E430334C1
:103E600044EA0644DC621C6B24F4FF6424F007047B
:103E70001C631963835843F001038350BDE8F0834A
:103E80000425E2E70325E0E70225DEE738B504462E
:103E9000002863D090F8A13003F0FF021BB980F82E
:103EA000A020FDF775FD022384F8A13023689A69EC
:103EB00022F070429A61D4E901200243E0689969D6
:103EC0000243206902430A439A619A68244960695F
:103ED0000A409A609A6842EA0042A06902439A60E6
:103EE000DA68E0690A40DA60DA6842EA0042206A89
:103EF0000243DA601A69606A0A401A611A6942EA82
:103F00000042A06A02431A615A69114059615A6914
:103F1000E16A42EA0142216B0A435A61D96A94F884
:103F2000360094F8355001F07F41D962D96A94F88F
:103F300034200A4342EA052242EA0042DA625A6B1E
:103F400042F006025A639A6942F001029A61002027
:103F50000123C4F8A40084F8A13038BD0120FCE797
:103F600000F800F070477047036870B59E6B5D6B9A
:103F70007207044614D5690712D55A6B22F0040261
:103F80005A630422DA63D0F8A43043F00103C0F886
:103F9000A430002380F8A12080F8A030FFF7E2FFD2
:103FA000B20716D5AB0714D523685A6B22F002026C
:103FB0005A630222DA63D4F8A4301343C4F8A4305D
:103FC000042384F8A130002384F8A0302046FFF7B2
:103FD000C9FFF00710D5E9070ED523685A6B22F008
:103FE00001025A630122DA63002384F8A12084F8D5
:103FF000A0302046FDF7DAF8320711D52B070FD590
:1040000023685A6B22F008025A630822DA630123FC
:1040100084F8A130002384F8A0302046FFF7A3FFE6
:1040200070BD2DE9F04190F8A030012B06460F46F7
:1040300094464FF002001FD04FF0010886F8A08090
:1040400086F8A10034240D4604FB02640FCD3834F9
:104050000FC40FCD0FC40FCD0FC42B6823603046A3
:1040600062463946FFF78CFE33680020C3F824808F
:1040700086F8A18086F8A000BDE8F08190F8A03015
:10408000012B4FF0020312D080F8A13003685A6B65
:1040900022F001025A63074A11645A6B42F001028E
:1040A0005A63012380F8A130002380F8A03018461D
:1040B000704700BF006801402DE9F341044640B35A
:1040C0000368DD0710D4236898075ED423681A07B5
:1040D00000F1A08023685B0700F1C080A069002880
:1040E00040F0288100202BE08F4B9A6802F00C02F0
:1040F000042A07D09A6802F00C02082A0BD15A68E9
:10410000510208D5884B1B689A03DCD56368002BE5
:10411000D9D1012014E06268B2F5803F13D11A684A
:1041200042F480321A60FEF765FF7F4E0546336821
:104130009B03C8D4FEF75EFF401B6428F7D9032019
:1041400002B0BDE8F081784DB2F5A02F2B6807D101
:1041500043F480232B602B6843F480332B60E2E729
:1041600023F480332B602B6823F480232B60002AF8
:10417000D9D1FEF73FFF06462B689F03A3D5FEF774
:1041800039FF801B6428F7D9D9E7674B9A6812F08A
:104190000C0F07D09A6802F00C02082A11D15B6854
:1041A0005E020ED4604A13689D0702D5E368012BB6
:1041B000AFD11368216923F0F80343EAC103136008
:1041C00084E7E268594BB2B101221A60FEF712FF90
:1041D000554D06462B68980707D52B68226923F0B2
:1041E000F80343EAC2032B6070E7FEF703FF801B6E
:1041F0000228EFD9A3E71A60FEF7FCFE4A4E0546F7
:10420000336899077FF562AFFEF7F4FE401B022882
:10421000F6D994E76269454B82B10122C3F8802E3A
:10422000FEF7E8FE404E0546736F9F073FF552AF1D
:10423000FEF7E0FE401B0228F6D980E7C3F8802E87
:10424000FEF7D8FE384E0546736F98077FF542AFEC
:10425000FEF7D0FE401B0228F6D970E7324B1A6CED
:1042600012F0805228D101921A6C42F080521A64E6
:104270001B6C03F080530193019B01272C4D2B688D
:10428000D9051BD5A368284D012B27D12B6F43F0EF
:1042900001032B67FEF7AEFE234E054641F2883838
:1042A000336F9B0739D5002F3FF418AF1E4A136CAC
:1042B00023F08053136411E70027DFE72B6843F4F2
:1042C00080732B60FEF796FE06462B68DA05D9D47C
:1042D000FEF790FE801B0228F7D930E7052B04D1AA
:1042E0002B6F43F004032B67D0E72A6F22F0010203
:1042F0002A672A6F22F004022A67002BCAD1FEF730
:1043000079FE41F2883806462B6F9807CBD5FEF729
:1043100071FE801B4045F7D911E7FEF76BFE401B8D
:104320004045BDD90BE700BF0038024000004742BE
:1043300000700040364DAB6803F00C03082B3DD0F5
:10434000344B002202281A662BD1FEF753FE064694
:104350002B6899011FD4D4E907321343626A43EAF8
:104360008213E26A43EA0263A26A5208013A43EA0C
:1043700002436B60274B264D01221A66FEF73AFE78
:1043800004462B689A013FF5ADAEFEF733FE001BE5
:104390000228F6D9D3E6FEF72DFE801B0228D7D9D6
:1043A000CDE6FEF727FE04462B689B017FF59AAE0B
:1043B000FEF720FE001B0228F6D9C0E601283FF4D4
:1043C000BFAE6B68E26903F4800191427FF4A1AE55
:1043D000216A03F03F028A427FF49BAE616A47F68E
:1043E000C0721A40B2EB811F7FF493AEA26A5208EA
:1043F00003F44031013AB1EB024F7FF48AAEE26A36
:1044000003F07063B3EB026F3FF46CAE81E600BF64
:104410000038024000004742134908B58B6803F09A
:104420000C03042B1CD0082B1CD14A684B6849682C
:1044300013F4800314BF0D480D48C1F3881118BF51
:10444000002302F03F02A1FB0001FBF721FF064B16
:104450005B68C3F3014301335B00B0FBF3F008BDBD
:104460000248FCE70248FAE70038024000127A00EE
:104470000024F4002DE9F0410D46044610B9012056
:10448000BDE8F081444B1A6802F00F028A4228D33B
:10449000226897072DD4D00741D43F4B1A6802F009
:1044A0000F02AA4266D8226851076CD4130707D5B9
:1044B0003A4A2169936823F4604343EAC103936055
:1044C000FFF7AAFF354B364A9B68C3F30313D35C4F
:1044D000D840344B1860344B1868FDF7D7FB0020E8
:1044E000CEE7CAB21A701B6803F00F038B42C6D125
:1044F000CEE72A4B12F0040F1EBF996841F4E05139
:104500009960160742BF996841F460419960234958
:10451000A0688B6823F0F00303438B60BBE76268FD
:104520001E4B012A1CD11B6813F4003FA7D01B4E61
:10453000B36823F003031343B360FEF75BFD41F25E
:1045400088380746B368626803F00C03B3EB820F48
:10455000A3D0FEF74FFDC01B4045F3D903208FE7E2
:10456000911E01291B6802D813F0007FDEE713F0CB
:10457000020FDBE7EAB21A701B6803F00F03AB42CD
:104580007FF47DAF8FE70549E0688B6823F4E05343
:1045900003438B608AE700BF003C024000380240C2
:1045A00068B80108740000207C000020044B054A14
:1045B0009B68C3F38223D35C034A1068D8407047DA
:1045C0000038024078B80108740000200F2303600F
:1045D0000B4B9A6802F0030242609A6802F0F00204
:1045E00082609A6802F4E052C2609B68DB0803F4C0
:1045F000E0530361034B1B6803F00F030B6070472C
:1046000000380240003C0240036813F0430FF7B546
:10461000044640F08C80236813F00C0F45D08B4B80
:104620008B4D00221A67FEF7E5FC06462B689F00BB
:1046300000F1CF8021684E0715D5D4E90403D5F8E1
:1046400088201B0602F0E04243EA80131343C5F8BA
:104650008830D5F88C30226A23F4F853013A43EAC3
:104660000223C5F88C300D0714D5794AA369D2F816
:10467000881020691B0701F0706143EA80130B4327
:10468000C2F88830D2F88C30616A23F440330B438F
:10469000C2F88C306D4B6E4E01221A67FEF7AAFCF1
:1046A00005463368980040F19B8023689B0633D50C
:1046B00000230193664B674D1A6C42F080521A64D6
:1046C0001B6C03F080530193019B2B6843F48073B0
:1046D0002B60FEF78FFC06462B68D90540F18780DA
:1046E0005B4D2B6F13F4407340F08880A36A03F492
:1046F0004072B2F5407F564A40F0A480916823F0A2
:10470000704021F4F81120F4407001439160116F62
:10471000C3F30B030B431367206810F010001FBF97
:104720004D4B94F82C20C3F8E02100204FE0474B7C
:10473000474E00229A66FEF75DFC054633681F016E
:104740003FD42168CD0741BFD4E901231B0743EAC9
:104750008213C6F88430880715D53D4AE368D2F83D
:10476000840065681B0600F0E04043EA85130343BC
:10477000C2F88430D2F88C00E36920F01F00013BBE
:104780000343C2F88C3049060AD5E36862681B0609
:1047900043EA8213A26843EA02732D4AC2F88430C6
:1047A0002A4B2B4E01229A66FEF724FC05463368FD
:1047B0001A013FF530AFFEF71DFC401B0228F6D969
:1047C00004E0FEF717FC401B0228B7D9032003B012
:1047D000F0BDFEF70FFC801B02287FF627AFF5E740
:1047E000FEF708FC401B02287FF65BAFEEE7FEF702
:1047F00001FC801B02287FF66FAFE7E7A26A02F494
:10480000407293423FF472AF2B6F104A0121C2F8FD
:10481000401E23F440730021C2F8401E2B672B6F0B
:10482000DA077FF563AFFEF7E5FB41F2883706460E
:104830002B6F9B073FF55AAFFEF7DCFB801BB8429E
:10484000F6D9C3E7916821F4F8115FE70000474209
:1048500000380240007000400010474238B50D4655
:104860000446C8B190F82C3003F0FF021BB980F861
:104870002D20FDF79FF9022384F82C30211D20689C
:1048800000F004FD62682068294600F03AFD01232B
:1048900084F82C30002038BD0120FCE770B590F87A
:1048A0002C30022B05460E46D8B212D000F0FB0485
:1048B000012C0FD1022385F82C30286800F057FD19
:1048C0003368022B06BF052385F82C3085F82C4071
:1048D000002070BD0120FCE738B590F82C30022B89
:1048E0000446D8B20DD094F82C30012BDDB209D19A
:1048F0000223206884F82C3000F05FFD84F82C50EF
:10490000002038BD0120FCE72DE9F3411D46174684
:1049100088460646FEF76EFB3D442C1AFEF76AFBFE
:10492000224B1B68C3F3CB330546634332680193C4
:10493000936838EA030301D000202DE07B1CF7D0F8
:10494000FEF758FB401BA04229D333685A6822F077
:10495000E0025A607268B2F5827F0AD1B268B2F59D
:10496000004F02D0B2F5806F03D11A6822F04002E6
:104970001A60B26AB2F5005F07D11A6822F40052D9
:104980001A601A6842F400521A60012386F8513006
:10499000002386F85030032002B0BDE8F081019B6F
:1049A000002B019B08BF0024013BBFE774000020DF
:1049B00038B513464268B2F5827F04461FD182683B
:1049C000B2F5004F02D0B2F5806F07D12568286894
:1049D000B2F5806F20F04000286007D00A468021A1
:1049E0002046FFF791FF20B9002038BD0A4601217B
:1049F000F6E7636D43F0200363650320F5E70A469D
:104A00000121EEE737B51346124A1568124AB5FB85
:104A1000F2F54FF47A72554342680195B2F5827F00
:104A200004460BD10A468021FFF76EFF78B1636D13
:104A300043F020036365032003B030BD019B33B115
:104A4000019B013B019323689B681B06F6D4002061
:104A5000F2E700BF7400002000366E0110B5044676
:104A6000002855D0436A002B4ED14268B2F5827FB0
:104A700000D0C3610023A36294F8513003F0FF0219
:104A800023B984F850202046FDF75EF82168A0681D
:104A9000A269022384F851300B6823F040030B60B5
:104AA000636800F4044003F482730343E06800F495
:104AB00000600343206900F002000343606900F0D6
:104AC0000100034302F400700343E06900F0380082
:104AD0000343206A00F080000343A06A00F4005002
:104AE00003430B60636A120C03F0100302F004022C
:104AF0001A434A60CB6923F40063CB610020012391
:104B0000606584F8513010BD0023C0E90433B1E77B
:104B10000120F8E72DE9F3411E4690F85030012BB3
:104B200004460D46174600F0A180012380F850305E
:104B3000FEF760FA94F85130012B8046D8B240F06D
:104B40009380002D5ED0002F5CD0A26825630323E4
:104B500084F85130B2F5004F4FF000036365C4E9AB
:104B60001033E786A363A387E387A786236807D16B
:104B70001A6822F040021A601A6842F480421A60F1
:104B80001A68E16852065EBF1A6842F040021A6075
:104B9000B1F5006F626841D10AB1012F07D135F834
:104BA000022BDA602563E38E013B9BB2E386E38E42
:104BB0009BB2A3B9424631462046FFF723FF0028A7
:104BC0004FD1A36833B901932368DA6801929B68D7
:104BD0000193019B606D003818BF012012E022682C
:104BE0009368980705D5236B33F8021BD1602363C4
:104BF000D9E7FEF7FFF9A0EB0800B0420BD3711C18
:104C0000D5D00320012384F85130002384F850309C
:104C100002B0BDE8F081002EC9D1F2E70AB1012F40
:104C200008D12A781A73236B01332363E38E013B87
:104C30009BB2E386E38E9BB2002BBBD023689A68BD
:104C4000920702D5226B1278ECE7FEF7D3F9A0EBBE
:104C50000800B04202D3731CECD0D2E7002EE9D199
:104C6000CFE720236365ACE70220CBE70220CFE744
:104C70002DE9F7431E4690F850300A9F012B044659
:104C80000D46914600F0E680012380F85030FEF793
:104C9000B1F994F851306268012B8046D9B20AD03C
:104CA000B2F5827F40F0D480A368002B40F0D08022
:104CB000042940F0CD80002D40D0B9F1000F3DD047
:104CC000002E3BD094F85130C4F83890042B1CBF10
:104CD000052384F8513000236365C4E91033236849
:104CE000E687E6861968A687490658BF19682563CE
:104CF00058BF41F04001A68658BF1960E168B1F580
:104D0000006F52D10AB1012E07D135F8022BDA60BB
:104D1000E38E2563013B9BB2E3860125E38E9BB2C4
:104D200073B9E38F9BB25BB9424639462046FFF721
:104D300069FE002800F081802023636501202BE0BC
:104D400021688B689E070DD5E38E9BB253B14DB1A0
:104D5000236B33F8022BCA602363E38E013B9BB2C3
:104D6000E38600258A6812F001020CD0E38F9BB223
:104D70004BB1A36BC96823F8021BA363E38F013B0C
:104D80009BB2E3871546FEF735F9A0EB0800B84261
:104D9000C4D3781CC2D00320012384F851300023EF
:104DA00084F8503003B0BDE8F0830AB1012E08D179
:104DB0002A781A73236B01332363E38E013B9BB282
:104DC000E38601252DE02268936899070ED5E38ECE
:104DD0009BB25BB155B1236B1B781373236B01330B
:104DE0002363E38E013B9BB2E38600252268916832
:104DF00011F001010DD0E38F9BB253B1A36BD268C8
:104E00001A70A36B0133A363E38F013B9BB2E3876B
:104E10000D46FEF7EFF8A0EB0800B8420AD37B1C62
:104E2000B9D1E38E9BB2002BCDD1E38F9BB2002B87
:104E3000C9D179E7002FF4D1ADE7A368002BABD13E
:104E400023680190DA6801929B680193019BA3E7B4
:104E50000220A1E70220A5E72DE9F7431D4643689C
:104E6000B3F5827F0446894617460CD1836853B94F
:104E7000042380F85130134600950A46FFF7F8FEE8
:104E800003B0BDE8F08394F85030012B00F0868029
:104E9000012384F85030FEF7ADF894F85130012B1F
:104EA0008046D8B278D1B9F1000F5CD0002F5AD02B
:104EB000A268C4F8389000260423B2F5004F84F8A5
:104EC0005130C4E9106666652368E787A7872663C3
:104ED000A686E68607D11A6822F040021A601A6890
:104EE00022F480421A601A6856065EBF1A6842F0C1
:104EF00040021A60E368F3B1E38F9BB2FBB1236811
:104F00009A68D20739D5DA68A36B23F8022BA3631A
:104F1000E38F013B9BB2E387EEE723689A68D007F3
:104F200018D5A26B1B7B1370A36B0133A363E38FB4
:104F3000013B9BB2E387E38F9BB2002BEDD142464E
:104F400029462046FFF734FD18BB606D003818BFB6
:104F5000012008E0FEF74EF8A0EB0800A84209D3B4
:104F6000691CE8D00320012384F85130002384F821
:104F7000503085E7002DDED1F4E7FEF73BF8A0EBDB
:104F80000800A84202D36B1CB6D0EBE7002DB3D1CA
:104F9000E8E720236365D8E70220E4E702206FE713
:104FA0007047000090F83D30012B30D1022380F88B
:104FB0003D300368DA6842F00102DA60154A934234
:104FC0001AD0B3F1804F17D0A2F57C42934213D090
:104FD00002F5806293420FD002F5806293420BD0BB
:104FE00002F57842934207D002F57052934203D003
:104FF000A2F59432934204D19A6802F00702062A7D
:1050000003D01A6842F001021A60002070470120A4
:10501000704700BF000001407047704770477047FD
:1050200003681A69910710B504460ED5DA6892072D
:105030000BD56FF002021A61012202779B699B0770
:1050400077D0FFF7EAFF0023237723681A69500718
:1050500010D5DA6851070DD56FF004021A610222EB
:1050600022779B6913F4407F204668D0FFF7D5FF75
:105070000023237723681A6912070FD5DA6810070F
:105080000CD56FF008021A6104222277DB699907B8
:1050900020465AD0FFF7C1FF0023237723681A69FF
:1050A000D20610D5DA68D0060DD56FF010021A615D
:1050B00008222277DB6913F4407F20464BD0FFF7AC
:1050C000ACFF0023237723681A69D10708D5DA6873
:1050D000D20705D56FF001021A612046FCF796FB56
:1050E00023681A69100608D5DA68110605D56FF02D
:1050F00080021A61204600F0C8F823681A69520637
:1051000008D5DA68500605D56FF040021A612046CE
:10511000FFF785FF23681A69910622D5DA6892069F
:105120001FD56FF0200220461A61BDE8104000F044
:10513000ABB8FFF771FF2046FFF770FF83E7FFF77B
:105140006BFF2046FFF76AFF92E7FFF765FF2046F7
:10515000FFF764FFA0E7FFF75FFF2046FFF75EFF62
:10516000AFE710BD304A0368904212D0B0F1804FD3
:105170000FD0A2F57C4290420BD002F580629042A3
:1051800007D002F58062904203D002F57842904247
:1051900019D14A6823F070031343234A904229D05F
:1051A000B0F1804F26D0A2F57C42904222D002F589
:1051B000806290421ED002F5806290421AD002F5C1
:1051C0007842904216D0194A904213D002F580627C
:1051D00090420FD002F5806290420BD0A2F5983237
:1051E000904207D002F58062904203D002F58062BF
:1051F000904203D1CA6823F4407313434A6923F0F1
:105200008003134303608B68C3620B688362064BA1
:10521000984203D003F58063984201D10B69036380
:1052200001234361704700BF00000140004001407E
:1052300010B5044630B390F83D3003F0FF021BB9BF
:1052400080F83C20FFF7ACFE0223206884F83D3054
:10525000211DFFF787FF012384F84630002084F8E2
:105260003E3084F83F3084F8403084F8413084F890
:10527000423084F8433084F8443084F8453084F870
:105280003D3010BD0120FCE7704770472DE9F04329
:10529000D1E907430A68D1F82490D1E90158D1E94E
:1052A00003ECD1E905762343A2B943EA09022A4374
:1052B00042EA0803016843EA0E0343EA0C033B4356
:1052C00021F4FF41334321F07F010B4303600020B1
:1052D000BDE8F083026843EA090322F4F84213436D
:1052E000036045EA0803426843EA0E0343EA0C03FD
:1052F0003B4322F4FF42334322F07F0213434360D7
:10530000E5E7CB6803F1FF3C4B69F0B50F684C68EB
:105310008E680D698969013B1B05013C013E013D19
:105320000139013F240136022D04090643EA0C33FA
:105330005AB93B432343826833432B430B4302F068
:105340007042134383600020F0BD826822F4700233
:1053500022F470421A43826044EA0603C2683B4367
:105360002B430B4302F070421343C360EBE770B56D
:10537000044615460269D1E900300343C868920D1E
:1053800043EA4023920513438A68013A43EA4213F1
:105390002361FDF72FFE0646A36913F0200301D118
:1053A000184603E06B1CF7D00DB9032070BDFDF764
:1053B00021FE801BA842EFD9F7E7436923F47F530E
:1053C00023F03E0343EA410141610020704708B5E4
:1053D0004FF0E0231B6901F00DFE012803D0BDE86A
:1053E000084000F0DFBB08BDEFF305832BB9064B87
:1053F000186828B901221A6070476FF005007047DD
:105400004FF0FF30704700BFAC19002010B5EFF32C
:1054100005845CB9084B1A68012A0AD1074AD47777
:1054200002221A6001F060FB204610BD6FF00500FB
:10543000FBE74FF0FF30F8E7AC19002000ED00E08B
:10544000F0B587B0144600220B460592EFF30582B3
:10545000D2B9C8B1002C2FD0A569002D08BF1825DE
:10546000691E3729AC462BD86168C90728D46669FC
:105470006EB1B208D4E9027E216857B1BEF15F0F68
:1054800002D9246904B1EEB9059807B0F0BD8022B5
:10549000F0E7BEF1000FF7D12469002CF4D10C46DF
:1054A00005A9CDE900C192B2214601F0F0FA012828
:1054B0001CBF00230593E7E74FF0180C8022EFE7AD
:1054C0001046E2E7CDE90147009501F0A8FA059002
:1054D000DAE710B5EFF3058424B910B101F062FCEE
:1054E000204610BD6FF00500FBE7F7B504460E46F9
:1054F0001546EFF305821AB10024204603B0F0BD33
:105500000028F9D08842F7D3E5B1D5E90237BBB11D
:105510004F2FF1D901282AD103210091114600F023
:10552000EAFC04460028E7D0DEB100231A461946FB
:1055300000F096FD012814D0204601F0D1F8DBE7F9
:10554000002FD9D1012C05D103220021204600F0E3
:1055500020FDE6E72046314600F064FD04460028C1
:10556000CAD055B92946204601F094F8C5E71A4635
:1055700000F036FD04460028BED02D68F2E713B5D2
:105580000C4608B3EFF30583B3B1E9B901AA019161
:1055900001F031F8012814D1019B13B9002002B0A9
:1055A00010BD4FF0E0234FF08052C3F8042DBFF33D
:1055B0004F8FBFF36F8FF1E700F05AFF0128EDD056
:1055C0002CB96FF00200EAE76FF00300E7E76FF035
:1055D0000100E4E713B510B3EFF30583B3B1002482
:1055E00001A9019400F051FE012815D1019B13B9C6
:1055F000002002B010BD4FF0E0234FF08052C3F8FE
:10560000042DBFF34F8FBFF36F8FF1E71A46194692
:1056100000F026FD0128EBD06FF00200E9E76FF003
:105620000300E6E7F7B505460E461446EFF3058797
:105630001FB10025284603B0F0BD0028F9D000298D
:10564000F7D0DAB1D2E9023283B14F2AF1D9226917
:10565000002AEED066694D43AE42EAD3009700F0CF
:105660004AFC05460028E4D0246811E0002AE0D175
:105670002369002BDDD16369002BDAD12846002293
:10568000314600F086FC05460028D2D0002CEBD134
:105690002146284600F0FEFFCCE773B51C46EFF329
:1056A0000586C6B118B311B30BBB01AA019300F074
:1056B0008AFD012818D1019B13B9002002B070BDEA
:1056C0004FF0E0234FF08052C3F8042DBFF34F8F0B
:1056D000BFF36F8FF1E750B149B13346224600F076
:1056E000BFFC0128E9D02CB96FF00200E6E76FF0AB
:1056F0000300E3E76FF00100E0E737B51C46EFF386
:105700000583C3B110B309B304BB01AA019400F02F
:1057100072FF012817D1019B13B9002003B030BDDF
:105720004FF0E0234FF08052C3F8042DBFF34F8FAA
:10573000BFF36F8FF1E748B141B1224600F0F9FDA8
:105740000128EAD02CB96FF00200E7E76FF0030000
:10575000E4E76FF00100E1E7034B0360034B0B60EC
:1057600080231360704700BF4C1900204C170020A5
:10577000034B0360034B0B604FF48073136070475F
:10578000B01D0020B019002010B50F4B1A461B6841
:105790008342FBD354681119884201BF4168104607
:1057A00009195160446801198B4207D107490968FA
:1057B0008B421FBF59681B68091941609042036002
:1057C00018BF106010BD00BF281E0120101E002051
:1057D0002DE9F041044601F0CDF94248424D0368FD
:1057E0000BBB42494E071FBFCB1D23F0070301F53A
:1057F0008032D21A14BF19464FF480320A443C4E0C
:10580000083A22F00702002373603160C2E90033D6
:10581000531AC1E900230260364A1360364A136006
:105820004FF000432B602F68274255D1002C46D003
:1058300004F1080361071CBF23F007030833002BA2
:105840004AD02D4C26689E4246D3294A156869687D
:10585000994204D2D5F800C0BCF1000F15D1006800
:10586000A84239D0C91A2868D2F8008010601029DF
:1058700012D9E81842070BD04FF0500383F3118878
:10588000BFF36F8FBFF34F8FFEE72A466546DEE713
:1058900041606B60FFF778FF6B681649174A08682C
:1058A000F61A1F4300232B6013682660864203F11B
:1058B000010338BF0E6008F108046F60136001F047
:1058C000FDF963070AD04FF0500383F31188BFF34B
:1058D0006F8FBFF34F8FFEE70024F0E72046BDE84F
:1058E000F08100BF101E0020141E0120141E002095
:1058F000281E01201C1E0120181E0120201E012030
:1059000010B5044690B31A4A50F8043C126813428A
:1059100008D14FF0500383F31188BFF36F8FBFF3AB
:105920004F8FFEE750F8081C41B14FF0500383F34E
:105930001188BFF36F8FBFF34F8FFEE723EA020397
:1059400040F8043C01F016F90A4A54F8043C116886
:10595000A4F108000B441360FFF716FF064A136812
:10596000BDE810400133136001F0A8B910BD00BFBD
:10597000141E0120181E0120241E012000F108031E
:105980004FF0FF32C0E9022343600361002303604C
:10599000704700230361704743684B609A688A60D0
:1059A0009A68516099600368086101330360704729
:1059B00030B50C68631C0AD103695A684A6091606B
:1059C0008B605960036808610133036030BD00F1EA
:1059D0000802134652681568A542FAD9EDE7D0E9E6
:1059E000011203698A6051605968814208BF5A6098
:1059F000002202611A68013A1A60186870470000B4
:105A000008480068006880F308884FF0000080F3C1
:105A1000148862B661B6BFF34F8FBFF36F8F00DF9C
:105A200000BF000008ED00E0DFF80C00016841F461
:105A3000700101607047000088ED00E082B0002333
:105A400001930D4B1B68013308D04FF0500383F3D3
:105A50001188BFF36F8FBFF34F8FFEE74FF05003F6
:105A600083F31188BFF36F8FBFF34F8F019B002B20
:105A7000FCD002B0704700BF800000204FF0807360
:105A800040F8043C074B40F80C3C21F001016FF05A
:105A9000020340F8081C40F8202C40F8243C44380D
:105AA000704700BF3D5A00080000000000000000E1
:105AB000074B19680868B0E8F04F80F30988BFF316
:105AC0006F8F4FF0000080F311887047AFF30080B4
:105AD000781E01204FF0500383F31188BFF36F8FBE
